{"project/contracts/LitPKPExecutor.sol":{"LitPKPExecutor":{"abi":[{"inputs":[],"name":"ECDSAInvalidSignature","type":"error"},{"inputs":[{"internalType":"uint256","name":"length","type":"uint256"}],"name":"ECDSAInvalidSignatureLength","type":"error"},{"inputs":[{"internalType":"bytes32","name":"s","type":"bytes32"}],"name":"ECDSAInvalidSignatureS","type":"error"},{"inputs":[],"name":"ExecutionFailed","type":"error"},{"inputs":[],"name":"InvalidModule","type":"error"},{"inputs":[],"name":"InvalidSignature","type":"error"},{"inputs":[],"name":"ModuleAlreadyInstalled","type":"error"},{"inputs":[],"name":"ModuleNotInstalled","type":"error"},{"inputs":[],"name":"ReentrancyGuardReentrantCall","type":"error"},{"inputs":[],"name":"UnauthorizedPKP","type":"error"},{"anonymous":false,"inputs":[{"indexed":true,"internalType":"address","name":"account","type":"address"},{"indexed":true,"internalType":"address","name":"pkpAddress","type":"address"},{"indexed":true,"internalType":"bytes32","name":"pkpTokenId","type":"bytes32"}],"name":"ModuleInstalled","type":"event"},{"anonymous":false,"inputs":[{"indexed":true,"internalType":"address","name":"account","type":"address"},{"indexed":true,"internalType":"address","name":"pkpAddress","type":"address"}],"name":"ModuleUninstalled","type":"event"},{"anonymous":false,"inputs":[{"indexed":true,"internalType":"address","name":"account","type":"address"},{"indexed":true,"internalType":"address","name":"target","type":"address"},{"indexed":false,"internalType":"uint256","name":"value","type":"uint256"},{"indexed":false,"internalType":"bytes","name":"data","type":"bytes"}],"name":"OperationExecuted","type":"event"},{"anonymous":false,"inputs":[{"indexed":true,"internalType":"address","name":"account","type":"address"},{"indexed":false,"internalType":"bytes32","name":"operationHash","type":"bytes32"},{"indexed":false,"internalType":"address","name":"pkpAddress","type":"address"}],"name":"PKPSignatureVerified","type":"event"},{"inputs":[],"name":"MODULE_TYPE","outputs":[{"internalType":"uint256","name":"","type":"uint256"}],"stateMutability":"view","type":"function"},{"inputs":[{"internalType":"address","name":"","type":"address"}],"name":"accountPKPs","outputs":[{"internalType":"address","name":"pkpEthAddress","type":"address"},{"internalType":"bytes32","name":"pkpTokenId","type":"bytes32"},{"internalType":"bool","name":"isInstalled","type":"bool"}],"stateMutability":"view","type":"function"},{"inputs":[{"internalType":"address","name":"target","type":"address"},{"internalType":"uint256","name":"value","type":"uint256"},{"internalType":"bytes","name":"data","type":"bytes"},{"internalType":"bytes","name":"pkpSignature","type":"bytes"}],"name":"executeFromExecutor","outputs":[{"internalType":"bytes","name":"result","type":"bytes"}],"stateMutability":"nonpayable","type":"function"},{"inputs":[{"internalType":"address","name":"account","type":"address"},{"internalType":"address","name":"target","type":"address"},{"internalType":"uint256","name":"value","type":"uint256"},{"internalType":"bytes","name":"data","type":"bytes"}],"name":"getOperationHash","outputs":[{"internalType":"bytes32","name":"operationHash","type":"bytes32"}],"stateMutability":"view","type":"function"},{"inputs":[{"internalType":"address","name":"account","type":"address"}],"name":"getPKPInfo","outputs":[{"internalType":"address","name":"pkpEthAddress","type":"address"},{"internalType":"bytes32","name":"pkpTokenId","type":"bytes32"},{"internalType":"bool","name":"isInstalled","type":"bool"}],"stateMutability":"view","type":"function"},{"inputs":[{"internalType":"address","name":"account","type":"address"},{"internalType":"uint256","name":"moduleTypeId","type":"uint256"}],"name":"isModuleInstalled","outputs":[{"internalType":"bool","name":"","type":"bool"}],"stateMutability":"view","type":"function"},{"inputs":[{"internalType":"bytes","name":"data","type":"bytes"}],"name":"onInstall","outputs":[],"stateMutability":"nonpayable","type":"function"},{"inputs":[{"internalType":"bytes","name":"","type":"bytes"}],"name":"onUninstall","outputs":[],"stateMutability":"nonpayable","type":"function"},{"inputs":[{"internalType":"address","name":"","type":"address"}],"name":"pkpToAccount","outputs":[{"internalType":"address","name":"","type":"address"}],"stateMutability":"view","type":"function"},{"inputs":[{"internalType":"bytes4","name":"interfaceId","type":"bytes4"}],"name":"supportsInterface","outputs":[{"internalType":"bool","name":"","type":"bool"}],"stateMutability":"pure","type":"function"}],"evm":{"bytecode":{"linkReferences":{},"object":"608060405234801561000f575f80fd5b5060015f55610c48806100215f395ff3fe608060405234801561000f575f80fd5b506004361061009b575f3560e01c806365378f331161006357806365378f33146101615780636d61fe70146101c45780636ea4f2c1146101d95780638a91b0e31461021b578063e5db17681461022e575f80fd5b806301ffc9a71461009f57806314a4bb2e146100d857806330f9cd4e146100f85780633d7d1876146101385780635775029f1461014b575b5f80fd5b6100c36100ad36600461091b565b6001600160e01b03191663da8d56e560e01b1490565b60405190151581526020015b60405180910390f35b6100eb6100e63660046109a5565b610241565b6040516100cf9190610a2b565b610120610106366004610a76565b60026020525f90815260409020546001600160a01b031681565b6040516001600160a01b0390911681526020016100cf565b6100c3610146366004610a91565b6104a8565b610153600281565b6040519081526020016100cf565b61019d61016f366004610a76565b600160208190525f91825260409091208054918101546002909101546001600160a01b039092169160ff1683565b604080516001600160a01b03909416845260208401929092521515908201526060016100cf565b6101d76101d2366004610abb565b6104de565b005b61019d6101e7366004610a76565b6001600160a01b039081165f908152600160208190526040909120805491810154600290910154919092169260ff90911690565b6101d7610229366004610abb565b610607565b61015361023c366004610afa565b6106ba565b606061024b6106f9565b335f908152600160205260409020600281015460ff1661027e57604051632a6f792960e01b815260040160405180910390fd5b5f3389898989463060405160200161029c9796959493929190610b68565b6040516020818303038152906040528051906020012090505f816040516020016102f291907f19457468657265756d205369676e6564204d6573736167653a0a3332000000008152601c810191909152603c0190565b6040516020818303038152906040528051906020012090505f61034a8288888080601f0160208091040260200160405190810160405280939291908181526020018383808284375f9201919091525061072192505050565b84549091506001600160a01b0380831691161461037a57604051638baa579f60e01b815260040160405180910390fd5b8354604080518581526001600160a01b03909216602083015233917ff421a0978eb02dce79dc207815cd3a916605427cd29c7e048fa6329001fc748f910160405180910390a25f808c6001600160a01b03168c8c8c6040516103dd929190610bba565b5f6040518083038185875af1925050503d805f8114610417576040519150601f19603f3d011682016040523d82523d5f602084013e61041c565b606091505b50915091508161043f57604051632b3f6d1160e21b815260040160405180910390fd5b8c6001600160a01b0316336001600160a01b03167f926548e82e76b645bdd24dce52f7238c139dd4543848260869842702800f86858e8e8e60405161048693929190610bc9565b60405180910390a39550505050505061049e60015f55565b9695505050505050565b5f600282146104b857505f6104d8565b506001600160a01b0382165f9081526001602052604090206002015460ff165b92915050565b5f806104ec83850185610a91565b335f90815260016020526040902060020154919350915060ff161561052457604051631261bbf160e11b815260040160405180910390fd5b6001600160a01b038281165f90815260026020526040902054161561055c576040516369efc6cd60e01b815260040160405180910390fd5b604080516060810182526001600160a01b0380851680835260208084018681526001858701818152335f8181528386528981209851895498166001600160a01b0319988916178955935192880192909255516002968701805491151560ff1990921691909117905583825294909152848120805490931684179092559251849392917fc1495dc290ab2391fe28514e763fbf6a8261867a01a21dd756915ddcdd2ec31b91a450505050565b335f908152600160205260409020600281015460ff1661063a57604051632a6f792960e01b815260040160405180910390fd5b8054335f81815260016020818152604080842080546001600160a01b031990811682559381018590556002908101805460ff191690556001600160a01b03909616808552959091528083208054909216909155518392917fa37495e2b2be5c2248f41e2e0f5785c299b4870ae846685cd0b7f00d497cd25291a350505050565b5f858585858546306040516020016106d89796959493929190610b68565b60405160208183030381529060405280519060200120905095945050505050565b60025f540361071b57604051633ee5aeb560e01b815260040160405180910390fd5b60025f55565b5f805f8061072f8686610749565b92509250925061073f8282610792565b5090949350505050565b5f805f8351604103610780576020840151604085015160608601515f1a61077288828585610853565b95509550955050505061078b565b505081515f91506002905b9250925092565b5f8260038111156107a5576107a5610bfe565b036107ae575050565b60018260038111156107c2576107c2610bfe565b036107e05760405163f645eedf60e01b815260040160405180910390fd5b60028260038111156107f4576107f4610bfe565b0361081a5760405163fce698f760e01b8152600481018290526024015b60405180910390fd5b600382600381111561082e5761082e610bfe565b0361084f576040516335e2f38360e21b815260048101829052602401610811565b5050565b5f80807f7fffffffffffffffffffffffffffffff5d576e7357a4501ddfe92f46681b20a084111561088c57505f91506003905082610911565b604080515f808252602082018084528a905260ff891692820192909252606081018790526080810186905260019060a0016020604051602081039080840390855afa1580156108dd573d5f803e3d5ffd5b5050604051601f1901519150506001600160a01b03811661090857505f925060019150829050610911565b92505f91508190505b9450945094915050565b5f6020828403121561092b575f80fd5b81356001600160e01b031981168114610942575f80fd5b9392505050565b6001600160a01b038116811461095d575f80fd5b50565b5f8083601f840112610970575f80fd5b50813567ffffffffffffffff811115610987575f80fd5b60208301915083602082850101111561099e575f80fd5b9250929050565b5f805f805f80608087890312156109ba575f80fd5b86356109c581610949565b955060208701359450604087013567ffffffffffffffff808211156109e8575f80fd5b6109f48a838b01610960565b90965094506060890135915080821115610a0c575f80fd5b50610a1989828a01610960565b979a9699509497509295939492505050565b5f6020808352835180828501525f5b81811015610a5657858101830151858201604001528201610a3a565b505f604082860101526040601f19601f8301168501019250505092915050565b5f60208284031215610a86575f80fd5b813561094281610949565b5f8060408385031215610aa2575f80fd5b8235610aad81610949565b946020939093013593505050565b5f8060208385031215610acc575f80fd5b823567ffffffffffffffff811115610ae2575f80fd5b610aee85828601610960565b90969095509350505050565b5f805f805f60808688031215610b0e575f80fd5b8535610b1981610949565b94506020860135610b2981610949565b935060408601359250606086013567ffffffffffffffff811115610b4b575f80fd5b610b5788828901610960565b969995985093965092949392505050565b5f6bffffffffffffffffffffffff19808a60601b168352808960601b166014840152876028840152858760488501379490910160488101939093525060601b9091166068820152607c01949350505050565b818382375f9101908152919050565b83815260406020820152816040820152818360608301375f818301606090810191909152601f909201601f1916010192915050565b634e487b7160e01b5f52602160045260245ffdfea264697066735822122069b53e25c9ecd07de199301a36c9abff9c5721583612a4563083c1d59bc6f9ff64736f6c63430008140033","opcodes":"PUSH1 0x80 PUSH1 0x40 MSTORE CALLVALUE DUP1 ISZERO PUSH2 0xF JUMPI PUSH0 DUP1 REVERT JUMPDEST POP PUSH1 0x1 PUSH0 SSTORE PUSH2 0xC48 DUP1 PUSH2 0x21 PUSH0 CODECOPY PUSH0 RETURN INVALID PUSH1 0x80 PUSH1 0x40 MSTORE CALLVALUE DUP1 ISZERO PUSH2 0xF JUMPI PUSH0 DUP1 REVERT JUMPDEST POP PUSH1 0x4 CALLDATASIZE LT PUSH2 0x9B JUMPI PUSH0 CALLDATALOAD PUSH1 0xE0 SHR DUP1 PUSH4 0x65378F33 GT PUSH2 0x63 JUMPI DUP1 PUSH4 0x65378F33 EQ PUSH2 0x161 JUMPI DUP1 PUSH4 0x6D61FE70 EQ PUSH2 0x1C4 JUMPI DUP1 PUSH4 0x6EA4F2C1 EQ PUSH2 0x1D9 JUMPI DUP1 PUSH4 0x8A91B0E3 EQ PUSH2 0x21B JUMPI DUP1 PUSH4 0xE5DB1768 EQ PUSH2 0x22E JUMPI PUSH0 DUP1 REVERT JUMPDEST DUP1 PUSH4 0x1FFC9A7 EQ PUSH2 0x9F JUMPI DUP1 PUSH4 0x14A4BB2E EQ PUSH2 0xD8 JUMPI DUP1 PUSH4 0x30F9CD4E EQ PUSH2 0xF8 JUMPI DUP1 PUSH4 0x3D7D1876 EQ PUSH2 0x138 JUMPI DUP1 PUSH4 0x5775029F EQ PUSH2 0x14B JUMPI JUMPDEST PUSH0 DUP1 REVERT JUMPDEST PUSH2 0xC3 PUSH2 0xAD CALLDATASIZE PUSH1 0x4 PUSH2 0x91B JUMP JUMPDEST PUSH1 0x1 PUSH1 0x1 PUSH1 0xE0 SHL SUB NOT AND PUSH4 0xDA8D56E5 PUSH1 0xE0 SHL EQ SWAP1 JUMP JUMPDEST PUSH1 0x40 MLOAD SWAP1 ISZERO ISZERO DUP2 MSTORE PUSH1 0x20 ADD JUMPDEST PUSH1 0x40 MLOAD DUP1 SWAP2 SUB SWAP1 RETURN JUMPDEST PUSH2 0xEB PUSH2 0xE6 CALLDATASIZE PUSH1 0x4 PUSH2 0x9A5 JUMP JUMPDEST PUSH2 0x241 JUMP JUMPDEST PUSH1 0x40 MLOAD PUSH2 0xCF SWAP2 SWAP1 PUSH2 0xA2B JUMP JUMPDEST PUSH2 0x120 PUSH2 0x106 CALLDATASIZE PUSH1 0x4 PUSH2 0xA76 JUMP JUMPDEST PUSH1 0x2 PUSH1 0x20 MSTORE PUSH0 SWAP1 DUP2 MSTORE PUSH1 0x40 SWAP1 KECCAK256 SLOAD PUSH1 0x1 PUSH1 0x1 PUSH1 0xA0 SHL SUB AND DUP2 JUMP JUMPDEST PUSH1 0x40 MLOAD PUSH1 0x1 PUSH1 0x1 PUSH1 0xA0 SHL SUB SWAP1 SWAP2 AND DUP2 MSTORE PUSH1 0x20 ADD PUSH2 0xCF JUMP JUMPDEST PUSH2 0xC3 PUSH2 0x146 CALLDATASIZE PUSH1 0x4 PUSH2 0xA91 JUMP JUMPDEST PUSH2 0x4A8 JUMP JUMPDEST PUSH2 0x153 PUSH1 0x2 DUP2 JUMP JUMPDEST PUSH1 0x40 MLOAD SWAP1 DUP2 MSTORE PUSH1 0x20 ADD PUSH2 0xCF JUMP JUMPDEST PUSH2 0x19D PUSH2 0x16F CALLDATASIZE PUSH1 0x4 PUSH2 0xA76 JUMP JUMPDEST PUSH1 0x1 PUSH1 0x20 DUP2 SWAP1 MSTORE PUSH0 SWAP2 DUP3 MSTORE PUSH1 0x40 SWAP1 SWAP2 KECCAK256 DUP1 SLOAD SWAP2 DUP2 ADD SLOAD PUSH1 0x2 SWAP1 SWAP2 ADD SLOAD PUSH1 0x1 PUSH1 0x1 PUSH1 0xA0 SHL SUB SWAP1 SWAP3 AND SWAP2 PUSH1 0xFF AND DUP4 JUMP JUMPDEST PUSH1 0x40 DUP1 MLOAD PUSH1 0x1 PUSH1 0x1 PUSH1 0xA0 SHL SUB SWAP1 SWAP5 AND DUP5 MSTORE PUSH1 0x20 DUP5 ADD SWAP3 SWAP1 SWAP3 MSTORE ISZERO ISZERO SWAP1 DUP3 ADD MSTORE PUSH1 0x60 ADD PUSH2 0xCF JUMP JUMPDEST PUSH2 0x1D7 PUSH2 0x1D2 CALLDATASIZE PUSH1 0x4 PUSH2 0xABB JUMP JUMPDEST PUSH2 0x4DE JUMP JUMPDEST STOP JUMPDEST PUSH2 0x19D PUSH2 0x1E7 CALLDATASIZE PUSH1 0x4 PUSH2 0xA76 JUMP JUMPDEST PUSH1 0x1 PUSH1 0x1 PUSH1 0xA0 SHL SUB SWAP1 DUP2 AND PUSH0 SWAP1 DUP2 MSTORE PUSH1 0x1 PUSH1 0x20 DUP2 SWAP1 MSTORE PUSH1 0x40 SWAP1 SWAP2 KECCAK256 DUP1 SLOAD SWAP2 DUP2 ADD SLOAD PUSH1 0x2 SWAP1 SWAP2 ADD SLOAD SWAP2 SWAP1 SWAP3 AND SWAP3 PUSH1 0xFF SWAP1 SWAP2 AND SWAP1 JUMP JUMPDEST PUSH2 0x1D7 PUSH2 0x229 CALLDATASIZE PUSH1 0x4 PUSH2 0xABB JUMP JUMPDEST PUSH2 0x607 JUMP JUMPDEST PUSH2 0x153 PUSH2 0x23C CALLDATASIZE PUSH1 0x4 PUSH2 0xAFA JUMP JUMPDEST PUSH2 0x6BA JUMP JUMPDEST PUSH1 0x60 PUSH2 0x24B PUSH2 0x6F9 JUMP JUMPDEST CALLER PUSH0 SWAP1 DUP2 MSTORE PUSH1 0x1 PUSH1 0x20 MSTORE PUSH1 0x40 SWAP1 KECCAK256 PUSH1 0x2 DUP2 ADD SLOAD PUSH1 0xFF AND PUSH2 0x27E JUMPI PUSH1 0x40 MLOAD PUSH4 0x2A6F7929 PUSH1 0xE0 SHL DUP2 MSTORE PUSH1 0x4 ADD PUSH1 0x40 MLOAD DUP1 SWAP2 SUB SWAP1 REVERT JUMPDEST PUSH0 CALLER DUP10 DUP10 DUP10 DUP10 CHAINID ADDRESS PUSH1 0x40 MLOAD PUSH1 0x20 ADD PUSH2 0x29C SWAP8 SWAP7 SWAP6 SWAP5 SWAP4 SWAP3 SWAP2 SWAP1 PUSH2 0xB68 JUMP JUMPDEST PUSH1 0x40 MLOAD PUSH1 0x20 DUP2 DUP4 SUB SUB DUP2 MSTORE SWAP1 PUSH1 0x40 MSTORE DUP1 MLOAD SWAP1 PUSH1 0x20 ADD KECCAK256 SWAP1 POP PUSH0 DUP2 PUSH1 0x40 MLOAD PUSH1 0x20 ADD PUSH2 0x2F2 SWAP2 SWAP1 PUSH32 0x19457468657265756D205369676E6564204D6573736167653A0A333200000000 DUP2 MSTORE PUSH1 0x1C DUP2 ADD SWAP2 SWAP1 SWAP2 MSTORE PUSH1 0x3C ADD SWAP1 JUMP JUMPDEST PUSH1 0x40 MLOAD PUSH1 0x20 DUP2 DUP4 SUB SUB DUP2 MSTORE SWAP1 PUSH1 0x40 MSTORE DUP1 MLOAD SWAP1 PUSH1 0x20 ADD KECCAK256 SWAP1 POP PUSH0 PUSH2 0x34A DUP3 DUP9 DUP9 DUP1 DUP1 PUSH1 0x1F ADD PUSH1 0x20 DUP1 SWAP2 DIV MUL PUSH1 0x20 ADD PUSH1 0x40 MLOAD SWAP1 DUP2 ADD PUSH1 0x40 MSTORE DUP1 SWAP4 SWAP3 SWAP2 SWAP1 DUP2 DUP2 MSTORE PUSH1 0x20 ADD DUP4 DUP4 DUP1 DUP3 DUP5 CALLDATACOPY PUSH0 SWAP3 ADD SWAP2 SWAP1 SWAP2 MSTORE POP PUSH2 0x721 SWAP3 POP POP POP JUMP JUMPDEST DUP5 SLOAD SWAP1 SWAP2 POP PUSH1 0x1 PUSH1 0x1 PUSH1 0xA0 SHL SUB DUP1 DUP4 AND SWAP2 AND EQ PUSH2 0x37A JUMPI PUSH1 0x40 MLOAD PUSH4 0x8BAA579F PUSH1 0xE0 SHL DUP2 MSTORE PUSH1 0x4 ADD PUSH1 0x40 MLOAD DUP1 SWAP2 SUB SWAP1 REVERT JUMPDEST DUP4 SLOAD PUSH1 0x40 DUP1 MLOAD DUP6 DUP2 MSTORE PUSH1 0x1 PUSH1 0x1 PUSH1 0xA0 SHL SUB SWAP1 SWAP3 AND PUSH1 0x20 DUP4 ADD MSTORE CALLER SWAP2 PUSH32 0xF421A0978EB02DCE79DC207815CD3A916605427CD29C7E048FA6329001FC748F SWAP2 ADD PUSH1 0x40 MLOAD DUP1 SWAP2 SUB SWAP1 LOG2 PUSH0 DUP1 DUP13 PUSH1 0x1 PUSH1 0x1 PUSH1 0xA0 SHL SUB AND DUP13 DUP13 DUP13 PUSH1 0x40 MLOAD PUSH2 0x3DD SWAP3 SWAP2 SWAP1 PUSH2 0xBBA JUMP JUMPDEST PUSH0 PUSH1 0x40 MLOAD DUP1 DUP4 SUB DUP2 DUP6 DUP8 GAS CALL SWAP3 POP POP POP RETURNDATASIZE DUP1 PUSH0 DUP2 EQ PUSH2 0x417 JUMPI PUSH1 0x40 MLOAD SWAP2 POP PUSH1 0x1F NOT PUSH1 0x3F RETURNDATASIZE ADD AND DUP3 ADD PUSH1 0x40 MSTORE RETURNDATASIZE DUP3 MSTORE RETURNDATASIZE PUSH0 PUSH1 0x20 DUP5 ADD RETURNDATACOPY PUSH2 0x41C JUMP JUMPDEST PUSH1 0x60 SWAP2 POP JUMPDEST POP SWAP2 POP SWAP2 POP DUP2 PUSH2 0x43F JUMPI PUSH1 0x40 MLOAD PUSH4 0x2B3F6D11 PUSH1 0xE2 SHL DUP2 MSTORE PUSH1 0x4 ADD PUSH1 0x40 MLOAD DUP1 SWAP2 SUB SWAP1 REVERT JUMPDEST DUP13 PUSH1 0x1 PUSH1 0x1 PUSH1 0xA0 SHL SUB AND CALLER PUSH1 0x1 PUSH1 0x1 PUSH1 0xA0 SHL SUB AND PUSH32 0x926548E82E76B645BDD24DCE52F7238C139DD4543848260869842702800F8685 DUP15 DUP15 DUP15 PUSH1 0x40 MLOAD PUSH2 0x486 SWAP4 SWAP3 SWAP2 SWAP1 PUSH2 0xBC9 JUMP JUMPDEST PUSH1 0x40 MLOAD DUP1 SWAP2 SUB SWAP1 LOG3 SWAP6 POP POP POP POP POP POP PUSH2 0x49E PUSH1 0x1 PUSH0 SSTORE JUMP JUMPDEST SWAP7 SWAP6 POP POP POP POP POP POP JUMP JUMPDEST PUSH0 PUSH1 0x2 DUP3 EQ PUSH2 0x4B8 JUMPI POP PUSH0 PUSH2 0x4D8 JUMP JUMPDEST POP PUSH1 0x1 PUSH1 0x1 PUSH1 0xA0 SHL SUB DUP3 AND PUSH0 SWAP1 DUP2 MSTORE PUSH1 0x1 PUSH1 0x20 MSTORE PUSH1 0x40 SWAP1 KECCAK256 PUSH1 0x2 ADD SLOAD PUSH1 0xFF AND JUMPDEST SWAP3 SWAP2 POP POP JUMP JUMPDEST PUSH0 DUP1 PUSH2 0x4EC DUP4 DUP6 ADD DUP6 PUSH2 0xA91 JUMP JUMPDEST CALLER PUSH0 SWAP1 DUP2 MSTORE PUSH1 0x1 PUSH1 0x20 MSTORE PUSH1 0x40 SWAP1 KECCAK256 PUSH1 0x2 ADD SLOAD SWAP2 SWAP4 POP SWAP2 POP PUSH1 0xFF AND ISZERO PUSH2 0x524 JUMPI PUSH1 0x40 MLOAD PUSH4 0x1261BBF1 PUSH1 0xE1 SHL DUP2 MSTORE PUSH1 0x4 ADD PUSH1 0x40 MLOAD DUP1 SWAP2 SUB SWAP1 REVERT JUMPDEST PUSH1 0x1 PUSH1 0x1 PUSH1 0xA0 SHL SUB DUP3 DUP2 AND PUSH0 SWAP1 DUP2 MSTORE PUSH1 0x2 PUSH1 0x20 MSTORE PUSH1 0x40 SWAP1 KECCAK256 SLOAD AND ISZERO PUSH2 0x55C JUMPI PUSH1 0x40 MLOAD PUSH4 0x69EFC6CD PUSH1 0xE0 SHL DUP2 MSTORE PUSH1 0x4 ADD PUSH1 0x40 MLOAD DUP1 SWAP2 SUB SWAP1 REVERT JUMPDEST PUSH1 0x40 DUP1 MLOAD PUSH1 0x60 DUP2 ADD DUP3 MSTORE PUSH1 0x1 PUSH1 0x1 PUSH1 0xA0 SHL SUB DUP1 DUP6 AND DUP1 DUP4 MSTORE PUSH1 0x20 DUP1 DUP5 ADD DUP7 DUP2 MSTORE PUSH1 0x1 DUP6 DUP8 ADD DUP2 DUP2 MSTORE CALLER PUSH0 DUP2 DUP2 MSTORE DUP4 DUP7 MSTORE DUP10 DUP2 KECCAK256 SWAP9 MLOAD DUP10 SLOAD SWAP9 AND PUSH1 0x1 PUSH1 0x1 PUSH1 0xA0 SHL SUB NOT SWAP9 DUP10 AND OR DUP10 SSTORE SWAP4 MLOAD SWAP3 DUP9 ADD SWAP3 SWAP1 SWAP3 SSTORE MLOAD PUSH1 0x2 SWAP7 DUP8 ADD DUP1 SLOAD SWAP2 ISZERO ISZERO PUSH1 0xFF NOT SWAP1 SWAP3 AND SWAP2 SWAP1 SWAP2 OR SWAP1 SSTORE DUP4 DUP3 MSTORE SWAP5 SWAP1 SWAP2 MSTORE DUP5 DUP2 KECCAK256 DUP1 SLOAD SWAP1 SWAP4 AND DUP5 OR SWAP1 SWAP3 SSTORE SWAP3 MLOAD DUP5 SWAP4 SWAP3 SWAP2 PUSH32 0xC1495DC290AB2391FE28514E763FBF6A8261867A01A21DD756915DDCDD2EC31B SWAP2 LOG4 POP POP POP POP JUMP JUMPDEST CALLER PUSH0 SWAP1 DUP2 MSTORE PUSH1 0x1 PUSH1 0x20 MSTORE PUSH1 0x40 SWAP1 KECCAK256 PUSH1 0x2 DUP2 ADD SLOAD PUSH1 0xFF AND PUSH2 0x63A JUMPI PUSH1 0x40 MLOAD PUSH4 0x2A6F7929 PUSH1 0xE0 SHL DUP2 MSTORE PUSH1 0x4 ADD PUSH1 0x40 MLOAD DUP1 SWAP2 SUB SWAP1 REVERT JUMPDEST DUP1 SLOAD CALLER PUSH0 DUP2 DUP2 MSTORE PUSH1 0x1 PUSH1 0x20 DUP2 DUP2 MSTORE PUSH1 0x40 DUP1 DUP5 KECCAK256 DUP1 SLOAD PUSH1 0x1 PUSH1 0x1 PUSH1 0xA0 SHL SUB NOT SWAP1 DUP2 AND DUP3 SSTORE SWAP4 DUP2 ADD DUP6 SWAP1 SSTORE PUSH1 0x2 SWAP1 DUP2 ADD DUP1 SLOAD PUSH1 0xFF NOT AND SWAP1 SSTORE PUSH1 0x1 PUSH1 0x1 PUSH1 0xA0 SHL SUB SWAP1 SWAP7 AND DUP1 DUP6 MSTORE SWAP6 SWAP1 SWAP2 MSTORE DUP1 DUP4 KECCAK256 DUP1 SLOAD SWAP1 SWAP3 AND SWAP1 SWAP2 SSTORE MLOAD DUP4 SWAP3 SWAP2 PUSH32 0xA37495E2B2BE5C2248F41E2E0F5785C299B4870AE846685CD0B7F00D497CD252 SWAP2 LOG3 POP POP POP POP JUMP JUMPDEST PUSH0 DUP6 DUP6 DUP6 DUP6 DUP6 CHAINID ADDRESS PUSH1 0x40 MLOAD PUSH1 0x20 ADD PUSH2 0x6D8 SWAP8 SWAP7 SWAP6 SWAP5 SWAP4 SWAP3 SWAP2 SWAP1 PUSH2 0xB68 JUMP JUMPDEST PUSH1 0x40 MLOAD PUSH1 0x20 DUP2 DUP4 SUB SUB DUP2 MSTORE SWAP1 PUSH1 0x40 MSTORE DUP1 MLOAD SWAP1 PUSH1 0x20 ADD KECCAK256 SWAP1 POP SWAP6 SWAP5 POP POP POP POP POP JUMP JUMPDEST PUSH1 0x2 PUSH0 SLOAD SUB PUSH2 0x71B JUMPI PUSH1 0x40 MLOAD PUSH4 0x3EE5AEB5 PUSH1 0xE0 SHL DUP2 MSTORE PUSH1 0x4 ADD PUSH1 0x40 MLOAD DUP1 SWAP2 SUB SWAP1 REVERT JUMPDEST PUSH1 0x2 PUSH0 SSTORE JUMP JUMPDEST PUSH0 DUP1 PUSH0 DUP1 PUSH2 0x72F DUP7 DUP7 PUSH2 0x749 JUMP JUMPDEST SWAP3 POP SWAP3 POP SWAP3 POP PUSH2 0x73F DUP3 DUP3 PUSH2 0x792 JUMP JUMPDEST POP SWAP1 SWAP5 SWAP4 POP POP POP POP JUMP JUMPDEST PUSH0 DUP1 PUSH0 DUP4 MLOAD PUSH1 0x41 SUB PUSH2 0x780 JUMPI PUSH1 0x20 DUP5 ADD MLOAD PUSH1 0x40 DUP6 ADD MLOAD PUSH1 0x60 DUP7 ADD MLOAD PUSH0 BYTE PUSH2 0x772 DUP9 DUP3 DUP6 DUP6 PUSH2 0x853 JUMP JUMPDEST SWAP6 POP SWAP6 POP SWAP6 POP POP POP POP PUSH2 0x78B JUMP JUMPDEST POP POP DUP2 MLOAD PUSH0 SWAP2 POP PUSH1 0x2 SWAP1 JUMPDEST SWAP3 POP SWAP3 POP SWAP3 JUMP JUMPDEST PUSH0 DUP3 PUSH1 0x3 DUP2 GT ISZERO PUSH2 0x7A5 JUMPI PUSH2 0x7A5 PUSH2 0xBFE JUMP JUMPDEST SUB PUSH2 0x7AE JUMPI POP POP JUMP JUMPDEST PUSH1 0x1 DUP3 PUSH1 0x3 DUP2 GT ISZERO PUSH2 0x7C2 JUMPI PUSH2 0x7C2 PUSH2 0xBFE JUMP JUMPDEST SUB PUSH2 0x7E0 JUMPI PUSH1 0x40 MLOAD PUSH4 0xF645EEDF PUSH1 0xE0 SHL DUP2 MSTORE PUSH1 0x4 ADD PUSH1 0x40 MLOAD DUP1 SWAP2 SUB SWAP1 REVERT JUMPDEST PUSH1 0x2 DUP3 PUSH1 0x3 DUP2 GT ISZERO PUSH2 0x7F4 JUMPI PUSH2 0x7F4 PUSH2 0xBFE JUMP JUMPDEST SUB PUSH2 0x81A JUMPI PUSH1 0x40 MLOAD PUSH4 0xFCE698F7 PUSH1 0xE0 SHL DUP2 MSTORE PUSH1 0x4 DUP2 ADD DUP3 SWAP1 MSTORE PUSH1 0x24 ADD JUMPDEST PUSH1 0x40 MLOAD DUP1 SWAP2 SUB SWAP1 REVERT JUMPDEST PUSH1 0x3 DUP3 PUSH1 0x3 DUP2 GT ISZERO PUSH2 0x82E JUMPI PUSH2 0x82E PUSH2 0xBFE JUMP JUMPDEST SUB PUSH2 0x84F JUMPI PUSH1 0x40 MLOAD PUSH4 0x35E2F383 PUSH1 0xE2 SHL DUP2 MSTORE PUSH1 0x4 DUP2 ADD DUP3 SWAP1 MSTORE PUSH1 0x24 ADD PUSH2 0x811 JUMP JUMPDEST POP POP JUMP JUMPDEST PUSH0 DUP1 DUP1 PUSH32 0x7FFFFFFFFFFFFFFFFFFFFFFFFFFFFFFF5D576E7357A4501DDFE92F46681B20A0 DUP5 GT ISZERO PUSH2 0x88C JUMPI POP PUSH0 SWAP2 POP PUSH1 0x3 SWAP1 POP DUP3 PUSH2 0x911 JUMP JUMPDEST PUSH1 0x40 DUP1 MLOAD PUSH0 DUP1 DUP3 MSTORE PUSH1 0x20 DUP3 ADD DUP1 DUP5 MSTORE DUP11 SWAP1 MSTORE PUSH1 0xFF DUP10 AND SWAP3 DUP3 ADD SWAP3 SWAP1 SWAP3 MSTORE PUSH1 0x60 DUP2 ADD DUP8 SWAP1 MSTORE PUSH1 0x80 DUP2 ADD DUP7 SWAP1 MSTORE PUSH1 0x1 SWAP1 PUSH1 0xA0 ADD PUSH1 0x20 PUSH1 0x40 MLOAD PUSH1 0x20 DUP2 SUB SWAP1 DUP1 DUP5 SUB SWAP1 DUP6 GAS STATICCALL ISZERO DUP1 ISZERO PUSH2 0x8DD JUMPI RETURNDATASIZE PUSH0 DUP1 RETURNDATACOPY RETURNDATASIZE PUSH0 REVERT JUMPDEST POP POP PUSH1 0x40 MLOAD PUSH1 0x1F NOT ADD MLOAD SWAP2 POP POP PUSH1 0x1 PUSH1 0x1 PUSH1 0xA0 SHL SUB DUP2 AND PUSH2 0x908 JUMPI POP PUSH0 SWAP3 POP PUSH1 0x1 SWAP2 POP DUP3 SWAP1 POP PUSH2 0x911 JUMP JUMPDEST SWAP3 POP PUSH0 SWAP2 POP DUP2 SWAP1 POP JUMPDEST SWAP5 POP SWAP5 POP SWAP5 SWAP2 POP POP JUMP JUMPDEST PUSH0 PUSH1 0x20 DUP3 DUP5 SUB SLT ISZERO PUSH2 0x92B JUMPI PUSH0 DUP1 REVERT JUMPDEST DUP2 CALLDATALOAD PUSH1 0x1 PUSH1 0x1 PUSH1 0xE0 SHL SUB NOT DUP2 AND DUP2 EQ PUSH2 0x942 JUMPI PUSH0 DUP1 REVERT JUMPDEST SWAP4 SWAP3 POP POP POP JUMP JUMPDEST PUSH1 0x1 PUSH1 0x1 PUSH1 0xA0 SHL SUB DUP2 AND DUP2 EQ PUSH2 0x95D JUMPI PUSH0 DUP1 REVERT JUMPDEST POP JUMP JUMPDEST PUSH0 DUP1 DUP4 PUSH1 0x1F DUP5 ADD SLT PUSH2 0x970 JUMPI PUSH0 DUP1 REVERT JUMPDEST POP DUP2 CALLDATALOAD PUSH8 0xFFFFFFFFFFFFFFFF DUP2 GT ISZERO PUSH2 0x987 JUMPI PUSH0 DUP1 REVERT JUMPDEST PUSH1 0x20 DUP4 ADD SWAP2 POP DUP4 PUSH1 0x20 DUP3 DUP6 ADD ADD GT ISZERO PUSH2 0x99E JUMPI PUSH0 DUP1 REVERT JUMPDEST SWAP3 POP SWAP3 SWAP1 POP JUMP JUMPDEST PUSH0 DUP1 PUSH0 DUP1 PUSH0 DUP1 PUSH1 0x80 DUP8 DUP10 SUB SLT ISZERO PUSH2 0x9BA JUMPI PUSH0 DUP1 REVERT JUMPDEST DUP7 CALLDATALOAD PUSH2 0x9C5 DUP2 PUSH2 0x949 JUMP JUMPDEST SWAP6 POP PUSH1 0x20 DUP8 ADD CALLDATALOAD SWAP5 POP PUSH1 0x40 DUP8 ADD CALLDATALOAD PUSH8 0xFFFFFFFFFFFFFFFF DUP1 DUP3 GT ISZERO PUSH2 0x9E8 JUMPI PUSH0 DUP1 REVERT JUMPDEST PUSH2 0x9F4 DUP11 DUP4 DUP12 ADD PUSH2 0x960 JUMP JUMPDEST SWAP1 SWAP7 POP SWAP5 POP PUSH1 0x60 DUP10 ADD CALLDATALOAD SWAP2 POP DUP1 DUP3 GT ISZERO PUSH2 0xA0C JUMPI PUSH0 DUP1 REVERT JUMPDEST POP PUSH2 0xA19 DUP10 DUP3 DUP11 ADD PUSH2 0x960 JUMP JUMPDEST SWAP8 SWAP11 SWAP7 SWAP10 POP SWAP5 SWAP8 POP SWAP3 SWAP6 SWAP4 SWAP5 SWAP3 POP POP POP JUMP JUMPDEST PUSH0 PUSH1 0x20 DUP1 DUP4 MSTORE DUP4 MLOAD DUP1 DUP3 DUP6 ADD MSTORE PUSH0 JUMPDEST DUP2 DUP2 LT ISZERO PUSH2 0xA56 JUMPI DUP6 DUP2 ADD DUP4 ADD MLOAD DUP6 DUP3 ADD PUSH1 0x40 ADD MSTORE DUP3 ADD PUSH2 0xA3A JUMP JUMPDEST POP PUSH0 PUSH1 0x40 DUP3 DUP7 ADD ADD MSTORE PUSH1 0x40 PUSH1 0x1F NOT PUSH1 0x1F DUP4 ADD AND DUP6 ADD ADD SWAP3 POP POP POP SWAP3 SWAP2 POP POP JUMP JUMPDEST PUSH0 PUSH1 0x20 DUP3 DUP5 SUB SLT ISZERO PUSH2 0xA86 JUMPI PUSH0 DUP1 REVERT JUMPDEST DUP2 CALLDATALOAD PUSH2 0x942 DUP2 PUSH2 0x949 JUMP JUMPDEST PUSH0 DUP1 PUSH1 0x40 DUP4 DUP6 SUB SLT ISZERO PUSH2 0xAA2 JUMPI PUSH0 DUP1 REVERT JUMPDEST DUP3 CALLDATALOAD PUSH2 0xAAD DUP2 PUSH2 0x949 JUMP JUMPDEST SWAP5 PUSH1 0x20 SWAP4 SWAP1 SWAP4 ADD CALLDATALOAD SWAP4 POP POP POP JUMP JUMPDEST PUSH0 DUP1 PUSH1 0x20 DUP4 DUP6 SUB SLT ISZERO PUSH2 0xACC JUMPI PUSH0 DUP1 REVERT JUMPDEST DUP3 CALLDATALOAD PUSH8 0xFFFFFFFFFFFFFFFF DUP2 GT ISZERO PUSH2 0xAE2 JUMPI PUSH0 DUP1 REVERT JUMPDEST PUSH2 0xAEE DUP6 DUP3 DUP7 ADD PUSH2 0x960 JUMP JUMPDEST SWAP1 SWAP7 SWAP1 SWAP6 POP SWAP4 POP POP POP POP JUMP JUMPDEST PUSH0 DUP1 PUSH0 DUP1 PUSH0 PUSH1 0x80 DUP7 DUP9 SUB SLT ISZERO PUSH2 0xB0E JUMPI PUSH0 DUP1 REVERT JUMPDEST DUP6 CALLDATALOAD PUSH2 0xB19 DUP2 PUSH2 0x949 JUMP JUMPDEST SWAP5 POP PUSH1 0x20 DUP7 ADD CALLDATALOAD PUSH2 0xB29 DUP2 PUSH2 0x949 JUMP JUMPDEST SWAP4 POP PUSH1 0x40 DUP7 ADD CALLDATALOAD SWAP3 POP PUSH1 0x60 DUP7 ADD CALLDATALOAD PUSH8 0xFFFFFFFFFFFFFFFF DUP2 GT ISZERO PUSH2 0xB4B JUMPI PUSH0 DUP1 REVERT JUMPDEST PUSH2 0xB57 DUP9 DUP3 DUP10 ADD PUSH2 0x960 JUMP JUMPDEST SWAP7 SWAP10 SWAP6 SWAP9 POP SWAP4 SWAP7 POP SWAP3 SWAP5 SWAP4 SWAP3 POP POP POP JUMP JUMPDEST PUSH0 PUSH12 0xFFFFFFFFFFFFFFFFFFFFFFFF NOT DUP1 DUP11 PUSH1 0x60 SHL AND DUP4 MSTORE DUP1 DUP10 PUSH1 0x60 SHL AND PUSH1 0x14 DUP5 ADD MSTORE DUP8 PUSH1 0x28 DUP5 ADD MSTORE DUP6 DUP8 PUSH1 0x48 DUP6 ADD CALLDATACOPY SWAP5 SWAP1 SWAP2 ADD PUSH1 0x48 DUP2 ADD SWAP4 SWAP1 SWAP4 MSTORE POP PUSH1 0x60 SHL SWAP1 SWAP2 AND PUSH1 0x68 DUP3 ADD MSTORE PUSH1 0x7C ADD SWAP5 SWAP4 POP POP POP POP JUMP JUMPDEST DUP2 DUP4 DUP3 CALLDATACOPY PUSH0 SWAP2 ADD SWAP1 DUP2 MSTORE SWAP2 SWAP1 POP JUMP JUMPDEST DUP4 DUP2 MSTORE PUSH1 0x40 PUSH1 0x20 DUP3 ADD MSTORE DUP2 PUSH1 0x40 DUP3 ADD MSTORE DUP2 DUP4 PUSH1 0x60 DUP4 ADD CALLDATACOPY PUSH0 DUP2 DUP4 ADD PUSH1 0x60 SWAP1 DUP2 ADD SWAP2 SWAP1 SWAP2 MSTORE PUSH1 0x1F SWAP1 SWAP3 ADD PUSH1 0x1F NOT AND ADD ADD SWAP3 SWAP2 POP POP JUMP JUMPDEST PUSH4 0x4E487B71 PUSH1 0xE0 SHL PUSH0 MSTORE PUSH1 0x21 PUSH1 0x4 MSTORE PUSH1 0x24 PUSH0 REVERT INVALID LOG2 PUSH5 0x6970667358 0x22 SLT KECCAK256 PUSH10 0xB53E25C9ECD07DE19930 BYTE CALLDATASIZE 0xC9 0xAB SELFDESTRUCT SWAP13 JUMPI 0x21 PC CALLDATASIZE SLT LOG4 JUMP ADDRESS DUP4 0xC1 0xD5 SWAP12 0xC6 0xF9 SELFDESTRUCT PUSH5 0x736F6C6343 STOP ADDMOD EQ STOP CALLER "},"methodIdentifiers":{"MODULE_TYPE()":"5775029f","accountPKPs(address)":"65378f33","executeFromExecutor(address,uint256,bytes,bytes)":"14a4bb2e","getOperationHash(address,address,uint256,bytes)":"e5db1768","getPKPInfo(address)":"6ea4f2c1","isModuleInstalled(address,uint256)":"3d7d1876","onInstall(bytes)":"6d61fe70","onUninstall(bytes)":"8a91b0e3","pkpToAccount(address)":"30f9cd4e","supportsInterface(bytes4)":"01ffc9a7"}}}}}